{
  "contractName": "Cancer",
  "abi": [
    {
      "inputs": [],
      "payable": false,
      "stateMutability": "nonpayable",
      "type": "constructor"
    },
    {
      "anonymous": false,
      "inputs": [
        {
          "indexed": false,
          "internalType": "address",
          "name": "accountAddress",
          "type": "address"
        },
        {
          "indexed": false,
          "internalType": "uint256",
          "name": "amount",
          "type": "uint256"
        }
      ],
      "name": "logDepositMade",
      "type": "event"
    },
    {
      "anonymous": false,
      "inputs": [
        {
          "indexed": false,
          "internalType": "address",
          "name": "accountAddress",
          "type": "address"
        }
      ],
      "name": "logEnrolled",
      "type": "event"
    },
    {
      "anonymous": false,
      "inputs": [
        {
          "indexed": false,
          "internalType": "address",
          "name": "accountAddress",
          "type": "address"
        },
        {
          "indexed": false,
          "internalType": "uint256",
          "name": "withdrawalAmount",
          "type": "uint256"
        },
        {
          "indexed": false,
          "internalType": "uint256",
          "name": "amount",
          "type": "uint256"
        }
      ],
      "name": "logWithdrawal",
      "type": "event"
    },
    {
      "constant": true,
      "inputs": [
        {
          "internalType": "uint256",
          "name": "",
          "type": "uint256"
        }
      ],
      "name": "Grade",
      "outputs": [
        {
          "internalType": "uint256",
          "name": "",
          "type": "uint256"
        }
      ],
      "payable": false,
      "stateMutability": "view",
      "type": "function"
    },
    {
      "constant": true,
      "inputs": [
        {
          "internalType": "uint256",
          "name": "",
          "type": "uint256"
        }
      ],
      "name": "Her",
      "outputs": [
        {
          "internalType": "uint256",
          "name": "",
          "type": "uint256"
        }
      ],
      "payable": false,
      "stateMutability": "view",
      "type": "function"
    },
    {
      "constant": true,
      "inputs": [
        {
          "internalType": "uint256",
          "name": "",
          "type": "uint256"
        }
      ],
      "name": "Surgeries",
      "outputs": [
        {
          "internalType": "uint256",
          "name": "_id",
          "type": "uint256"
        },
        {
          "internalType": "string",
          "name": "_leftBreast",
          "type": "string"
        },
        {
          "internalType": "string",
          "name": "_rightBreast",
          "type": "string"
        }
      ],
      "payable": false,
      "stateMutability": "view",
      "type": "function"
    },
    {
      "constant": true,
      "inputs": [],
      "name": "SurgeryCount",
      "outputs": [
        {
          "internalType": "uint256",
          "name": "",
          "type": "uint256"
        }
      ],
      "payable": false,
      "stateMutability": "view",
      "type": "function"
    },
    {
      "constant": true,
      "inputs": [
        {
          "internalType": "address",
          "name": "",
          "type": "address"
        }
      ],
      "name": "enrolled",
      "outputs": [
        {
          "internalType": "bool",
          "name": "",
          "type": "bool"
        }
      ],
      "payable": false,
      "stateMutability": "view",
      "type": "function"
    },
    {
      "constant": true,
      "inputs": [],
      "name": "owner",
      "outputs": [
        {
          "internalType": "address",
          "name": "",
          "type": "address"
        }
      ],
      "payable": false,
      "stateMutability": "view",
      "type": "function"
    },
    {
      "constant": true,
      "inputs": [],
      "name": "balance",
      "outputs": [
        {
          "internalType": "uint256",
          "name": "",
          "type": "uint256"
        }
      ],
      "payable": false,
      "stateMutability": "view",
      "type": "function"
    },
    {
      "constant": false,
      "inputs": [],
      "name": "enroll",
      "outputs": [
        {
          "internalType": "bool",
          "name": "",
          "type": "bool"
        }
      ],
      "payable": false,
      "stateMutability": "nonpayable",
      "type": "function"
    },
    {
      "constant": false,
      "inputs": [
        {
          "internalType": "uint256",
          "name": "_id",
          "type": "uint256"
        },
        {
          "internalType": "string",
          "name": "_leftBreast",
          "type": "string"
        },
        {
          "internalType": "string",
          "name": "_rightBreast",
          "type": "string"
        }
      ],
      "name": "getSurgery",
      "outputs": [],
      "payable": false,
      "stateMutability": "nonpayable",
      "type": "function"
    },
    {
      "constant": false,
      "inputs": [
        {
          "internalType": "uint256",
          "name": "_id",
          "type": "uint256"
        },
        {
          "internalType": "string",
          "name": "_ductalcarcinoma",
          "type": "string"
        },
        {
          "internalType": "string",
          "name": "_lubilarcarcinoma",
          "type": "string"
        },
        {
          "internalType": "string",
          "name": "_Inflamatory",
          "type": "string"
        },
        {
          "internalType": "string",
          "name": "_TripleNCancer",
          "type": "string"
        }
      ],
      "name": "addType",
      "outputs": [],
      "payable": false,
      "stateMutability": "nonpayable",
      "type": "function"
    },
    {
      "constant": false,
      "inputs": [
        {
          "internalType": "uint256",
          "name": "_id",
          "type": "uint256"
        },
        {
          "internalType": "string",
          "name": "_intense",
          "type": "string"
        },
        {
          "internalType": "string",
          "name": "_interpret",
          "type": "string"
        },
        {
          "internalType": "uint256",
          "name": "_percentage",
          "type": "uint256"
        }
      ],
      "name": "addProgesteron",
      "outputs": [],
      "payable": false,
      "stateMutability": "nonpayable",
      "type": "function"
    },
    {
      "constant": false,
      "inputs": [
        {
          "internalType": "uint256",
          "name": "_id",
          "type": "uint256"
        },
        {
          "internalType": "string",
          "name": "_intense",
          "type": "string"
        },
        {
          "internalType": "string",
          "name": "_interpret",
          "type": "string"
        },
        {
          "internalType": "uint256",
          "name": "_percentage",
          "type": "uint256"
        }
      ],
      "name": "addEstrogen",
      "outputs": [],
      "payable": false,
      "stateMutability": "nonpayable",
      "type": "function"
    },
    {
      "constant": false,
      "inputs": [],
      "name": "Estro",
      "outputs": [
        {
          "internalType": "string",
          "name": "",
          "type": "string"
        }
      ],
      "payable": false,
      "stateMutability": "nonpayable",
      "type": "function"
    },
    {
      "constant": false,
      "inputs": [],
      "name": "descision",
      "outputs": [
        {
          "internalType": "string",
          "name": "",
          "type": "string"
        }
      ],
      "payable": false,
      "stateMutability": "nonpayable",
      "type": "function"
    }
  ],
  "bytecode": "0x60806040526040518060a00160405280600060ff168152602001600160ff168152602001600260ff168152602001600360ff168152602001600460ff168152506007906005620000519291906200090e565b50600060085560405180610c800160405280600160ff168152602001600260ff168152602001600360ff168152602001600460ff168152602001600560ff168152602001600660ff168152602001600760ff168152602001600860ff168152602001600960ff168152602001600a60ff168152602001600b60ff168152602001600c60ff168152602001600d60ff168152602001600e60ff168152602001600f60ff168152602001601060ff168152602001601160ff168152602001601260ff168152602001601360ff168152602001601460ff168152602001601560ff168152602001601660ff168152602001601760ff168152602001601860ff168152602001601960ff168152602001601a60ff168152602001601b60ff168152602001601c60ff168152602001601d60ff168152602001601e60ff168152602001601f60ff168152602001602060ff168152602001602160ff168152602001602260ff168152602001602360ff168152602001602460ff168152602001602560ff168152602001602660ff168152602001602760ff168152602001602860ff168152602001602960ff168152602001602a60ff168152602001602b60ff168152602001602c60ff168152602001602d60ff168152602001602e60ff168152602001602f60ff168152602001603060ff168152602001603160ff168152602001603260ff168152602001603360ff168152602001603460ff168152602001603560ff168152602001603660ff168152602001603760ff168152602001603860ff168152602001603960ff168152602001603a60ff168152602001603b60ff168152602001603c60ff168152602001603d60ff168152602001603e60ff168152602001603f60ff168152602001604060ff168152602001604160ff168152602001604260ff168152602001604360ff168152602001604460ff168152602001604560ff168152602001604660ff168152602001604760ff168152602001604860ff168152602001604960ff168152602001604a60ff168152602001604b60ff168152602001604c60ff168152602001604d60ff168152602001604e60ff168152602001604f60ff168152602001605060ff168152602001605160ff168152602001605260ff168152602001605360ff168152602001605460ff168152602001605560ff168152602001605660ff168152602001605760ff168152602001605860ff168152602001605960ff168152602001605a60ff168152602001605b60ff168152602001605c60ff168152602001605d60ff168152602001605e60ff168152602001605f60ff168152602001606060ff168152602001606160ff168152602001606260ff168152602001606360ff168152602001606460ff1681525060099060646200045b92919062000965565b5060405180610c800160405280600160ff168152602001600260ff168152602001600360ff168152602001600460ff168152602001600560ff168152602001600660ff168152602001600760ff168152602001600860ff168152602001600960ff168152602001600a60ff168152602001600b60ff168152602001600c60ff168152602001600d60ff168152602001600e60ff168152602001600f60ff168152602001601060ff168152602001601160ff168152602001601260ff168152602001601360ff168152602001601460ff168152602001601560ff168152602001601660ff168152602001601760ff168152602001601860ff168152602001601960ff168152602001601a60ff168152602001601b60ff168152602001601c60ff168152602001601d60ff168152602001601e60ff168152602001601f60ff168152602001602060ff168152602001602160ff168152602001602260ff168152602001602360ff168152602001602460ff168152602001602560ff168152602001602660ff168152602001602760ff168152602001602860ff168152602001602960ff168152602001602a60ff168152602001602b60ff168152602001602c60ff168152602001602d60ff168152602001602e60ff168152602001602f60ff168152602001603060ff168152602001603160ff168152602001603260ff168152602001603360ff168152602001603460ff168152602001603560ff168152602001603660ff168152602001603760ff168152602001603860ff168152602001603960ff168152602001603a60ff168152602001603b60ff168152602001603c60ff168152602001603d60ff168152602001603e60ff168152602001603f60ff168152602001604060ff168152602001604160ff168152602001604260ff168152602001604360ff168152602001604460ff168152602001604560ff168152602001604660ff168152602001604760ff168152602001604860ff168152602001604960ff168152602001604a60ff168152602001604b60ff168152602001604c60ff168152602001604d60ff168152602001604e60ff168152602001604f60ff168152602001605060ff168152602001605160ff168152602001605260ff168152602001605360ff168152602001605460ff168152602001605560ff168152602001605660ff168152602001605760ff168152602001605860ff168152602001605960ff168152602001605a60ff168152602001605b60ff168152602001605c60ff168152602001605d60ff168152602001605e60ff168152602001605f60ff168152602001606060ff168152602001606160ff168152602001606260ff168152602001606360ff168152602001606460ff16815250600a9060646200086092919062000965565b50603c600b556040518060a00160405280600060ff168152602001600160ff168152602001600260ff168152602001600360ff168152602001600460ff16815250600c906005620008b39291906200090e565b506000600d55348015620008c657600080fd5b5033600660006101000a81548173ffffffffffffffffffffffffffffffffffffffff021916908373ffffffffffffffffffffffffffffffffffffffff160217905550620009e4565b82805482825590600052602060002090810192821562000952579160200282015b8281111562000951578251829060ff169055916020019190600101906200092f565b5b509050620009619190620009bc565b5090565b828054828255906000526020600020908101928215620009a9579160200282015b82811115620009a8578251829060ff1690559160200191906001019062000986565b5b509050620009b89190620009bc565b5090565b620009e191905b80821115620009dd576000816000905550600101620009c3565b5090565b90565b6114ea80620009f46000396000f3fe608060405234801561001057600080fd5b50600436106100ea5760003560e01c80637382c5c21161008c57806391173cfc1161006657806391173cfc14610961578063b69ef8a814610ac7578063e65f2a7e14610ae5578063fc6875f114610b07576100ea565b80637382c5c2146107795780638a999d73146107bb5780638da5cb5b14610917576100ea565b806334d6be51116100c857806334d6be5114610458578063572ce1ca146104db578063649e00f5146106415780636a8a08d51461065f576100ea565b806310657356146100ef57806310eb0e0e146103795780632f66d8b1146103d5575b600080fd5b610377600480360360a081101561010557600080fd5b81019080803590602001909291908035906020019064010000000081111561012c57600080fd5b82018360208201111561013e57600080fd5b8035906020019184600183028401116401000000008311171561016057600080fd5b91908080601f016020809104026020016040519081016040528093929190818152602001838380828437600081840152601f19601f820116905080830192505050505050509192919290803590602001906401000000008111156101c357600080fd5b8201836020820111156101d557600080fd5b803590602001918460018302840111640100000000831117156101f757600080fd5b91908080601f016020809104026020016040519081016040528093929190818152602001838380828437600081840152601f19601f8201169050808301925050505050505091929192908035906020019064010000000081111561025a57600080fd5b82018360208201111561026c57600080fd5b8035906020019184600183028401116401000000008311171561028e57600080fd5b91908080601f016020809104026020016040519081016040528093929190818152602001838380828437600081840152601f19601f820116905080830192505050505050509192919290803590602001906401000000008111156102f157600080fd5b82018360208201111561030357600080fd5b8035906020019184600183028401116401000000008311171561032557600080fd5b91908080601f016020809104026020016040519081016040528093929190818152602001838380828437600081840152601f19601f820116905080830192505050505050509192919290505050610b49565b005b6103bb6004803603602081101561038f57600080fd5b81019080803573ffffffffffffffffffffffffffffffffffffffff169060200190929190505050610bfb565b604051808215151515815260200191505060405180910390f35b6103dd610c1b565b6040518080602001828103825283818151815260200191508051906020019080838360005b8381101561041d578082015181840152602081019050610402565b50505050905090810190601f16801561044a5780820380516001836020036101000a031916815260200191505b509250505060405180910390f35b610460610de2565b6040518080602001828103825283818151815260200191508051906020019080838360005b838110156104a0578082015181840152602081019050610485565b50505050905090810190601f1680156104cd5780820380516001836020036101000a031916815260200191505b509250505060405180910390f35b61063f600480360360808110156104f157600080fd5b81019080803590602001909291908035906020019064010000000081111561051857600080fd5b82018360208201111561052a57600080fd5b8035906020019184600183028401116401000000008311171561054c57600080fd5b91908080601f016020809104026020016040519081016040528093929190818152602001838380828437600081840152601f19601f820116905080830192505050505050509192919290803590602001906401000000008111156105af57600080fd5b8201836020820111156105c157600080fd5b803590602001918460018302840111640100000000831117156105e357600080fd5b91908080601f016020809104026020016040519081016040528093929190818152602001838380828437600081840152601f19601f82011690508083019250505050505050919291929080359060200190929190505050610f9b565b005b610649611016565b6040518082815260200191505060405180910390f35b61068b6004803603602081101561067557600080fd5b810190808035906020019092919050505061101c565b604051808481526020018060200180602001838103835285818151815260200191508051906020019080838360005b838110156106d55780820151818401526020810190506106ba565b50505050905090810190601f1680156107025780820380516001836020036101000a031916815260200191505b50838103825284818151815260200191508051906020019080838360005b8381101561073b578082015181840152602081019050610720565b50505050905090810190601f1680156107685780820380516001836020036101000a031916815260200191505b509550505050505060405180910390f35b6107a56004803603602081101561078f57600080fd5b8101908080359060200190929190505050611176565b6040518082815260200191505060405180910390f35b610915600480360360608110156107d157600080fd5b8101908080359060200190929190803590602001906401000000008111156107f857600080fd5b82018360208201111561080a57600080fd5b8035906020019184600183028401116401000000008311171561082c57600080fd5b91908080601f016020809104026020016040519081016040528093929190818152602001838380828437600081840152601f19601f8201169050808301925050505050505091929192908035906020019064010000000081111561088f57600080fd5b8201836020820111156108a157600080fd5b803590602001918460018302840111640100000000831117156108c357600080fd5b91908080601f016020809104026020016040519081016040528093929190818152602001838380828437600081840152601f19601f820116905080830192505050505050509192919290505050611197565b005b61091f611226565b604051808273ffffffffffffffffffffffffffffffffffffffff1673ffffffffffffffffffffffffffffffffffffffff16815260200191505060405180910390f35b610ac56004803603608081101561097757600080fd5b81019080803590602001909291908035906020019064010000000081111561099e57600080fd5b8201836020820111156109b057600080fd5b803590602001918460018302840111640100000000831117156109d257600080fd5b91908080601f016020809104026020016040519081016040528093929190818152602001838380828437600081840152601f19601f82011690508083019250505050505050919291929080359060200190640100000000811115610a3557600080fd5b820183602082011115610a4757600080fd5b80359060200191846001830284011164010000000083111715610a6957600080fd5b91908080601f016020809104026020016040519081016040528093929190818152602001838380828437600081840152601f19601f8201169050808301925050505050505091929192908035906020019092919050505061124c565b005b610acf6112c7565b6040518082815260200191505060405180910390f35b610aed61130d565b604051808215151515815260200191505060405180910390f35b610b3360048036036020811015610b1d57600080fd5b810190808035906020019092919050505061136f565b6040518082815260200191505060405180910390f35b604051806080016040528085815260200184815260200183815260200182815250600360008781526020019081526020016000206000820151816000019080519060200190610b99929190611390565b506020820151816001019080519060200190610bb6929190611390565b506040820151816002019080519060200190610bd3929190611390565b506060820151816003019080519060200190610bf0929190611390565b509050505050505050565b60056020528060005260406000206000915054906101000a900460ff1681565b60606001600d541015610c79576040518060400160405280601081526020017f4865722054776f206e6567617469766500000000000000000000000000000000815250600e9080519060200190610c73929190611410565b50610d42565b6001600d541415610cd5576040518060400160405280601081526020017f4865722054776f20706f73697469766500000000000000000000000000000000815250600e9080519060200190610ccf929190611410565b50610d41565b6001600d54101580610ce957506002600d54145b15610d3f576040518060400160405280601181526020017f4865722054776f20706f73697469766520000000000000000000000000000000815250600e9080519060200190610d39929190611410565b50610d40565b5b5b5b600e8054600181600116156101000203166002900480601f016020809104026020016040519081016040528092919081815260200182805460018160011615610100020316600290048015610dd85780601f10610dad57610100808354040283529160200191610dd8565b820191906000526020600020905b815481529060010190602001808311610dbb57829003601f168201915b5050505050905090565b60606032600b541015610e40576040518060400160405280600e81526020017f457374726f204e65676174697665000000000000000000000000000000000000815250600e9080519060200190610e3a929190611410565b50610efb565b6032600b541415610e9c576040518060400160405280601a81526020017f457374726f67656e2069732070726573656e74206e6f726d616c000000000000815250600e9080519060200190610e96929190611410565b50610efa565b6032600b541115610ef8576040518060400160405280601c81526020017f457374726f67656e2069732070726573656e74207374726f6e676c7900000000815250600e9080519060200190610ef2929190611410565b50610ef9565b5b5b5b600e8054600181600116156101000203166002900480601f016020809104026020016040519081016040528092919081815260200182805460018160011615610100020316600290048015610f915780601f10610f6657610100808354040283529160200191610f91565b820191906000526020600020905b815481529060010190602001808311610f7457829003601f168201915b5050505050905090565b604051806060016040528084815260200183815260200182815250600260008681526020019081526020016000206000820151816000019080519060200190610fe5929190611390565b506020820151816001019080519060200190611002929190611390565b506040820151816002015590505050505050565b60085481565b6004602052806000526040600020600091509050806000015490806001018054600181600116156101000203166002900480601f0160208091040260200160405190810160405280929190818152602001828054600181600116156101000203166002900480156110ce5780601f106110a3576101008083540402835291602001916110ce565b820191906000526020600020905b8154815290600101906020018083116110b157829003601f168201915b505050505090806002018054600181600116156101000203166002900480601f01602080910402602001604051908101604052809291908181526020018280546001816001161561010002031660029004801561116c5780601f106111415761010080835404028352916020019161116c565b820191906000526020600020905b81548152906001019060200180831161114f57829003601f168201915b5050505050905083565b6007818154811061118357fe5b906000526020600020016000915090505481565b60016008600082825401925050819055506040518060600160405280600854815260200183815260200182815250600460006008548152602001908152602001600020600082015181600001556020820151816001019080519060200190611200929190611390565b50604082015181600201908051906020019061121d929190611390565b50905050505050565b600660009054906101000a900473ffffffffffffffffffffffffffffffffffffffff1681565b604051806060016040528084815260200183815260200182815250600160008681526020019081526020016000206000820151816000019080519060200190611296929190611390565b5060208201518160010190805190602001906112b3929190611390565b506040820151816002015590505050505050565b60008060003373ffffffffffffffffffffffffffffffffffffffff1673ffffffffffffffffffffffffffffffffffffffff16815260200190815260200160002054905090565b6000803390506001600560008373ffffffffffffffffffffffffffffffffffffffff1673ffffffffffffffffffffffffffffffffffffffff16815260200190815260200160002060006101000a81548160ff0219169083151502179055505090565b600c818154811061137c57fe5b906000526020600020016000915090505481565b828054600181600116156101000203166002900490600052602060002090601f016020900481019282601f106113d157805160ff19168380011785556113ff565b828001600101855582156113ff579182015b828111156113fe5782518255916020019190600101906113e3565b5b50905061140c9190611490565b5090565b828054600181600116156101000203166002900490600052602060002090601f016020900481019282601f1061145157805160ff191683800117855561147f565b8280016001018555821561147f579182015b8281111561147e578251825591602001919060010190611463565b5b50905061148c9190611490565b5090565b6114b291905b808211156114ae576000816000905550600101611496565b5090565b9056fea265627a7a7231582026ddbc3f0da8a7fff541815bc437f4e2fab29b6ec9f645e2c92681e62a6be1a264736f6c63430005100032",
  "source": "// SPDX-License-Identifier: MIT\r\npragma solidity >=0.4.22 <0.8.0;\r\n\r\ncontract Cancer {\r\n\r\n// mapping\r\n    mapping( address => uint) private balances;\r\n    mapping (uint => Progesteron) private intensity;\r\n    mapping(uint => Estrogen) private intensify;\r\n    mapping(uint => Type) private types;\r\n    mapping (uint => Surgery) public Surgeries;\r\n    mapping (address => bool) public enrolled;\r\n    address public owner;\r\n\r\n    event logEnrolled(address accountAddress);\r\n    event logDepositMade(address accountAddress, uint amount);\r\n    event logWithdrawal(address accountAddress, uint withdrawalAmount, uint amount);\r\n\r\n    constructor() public {\r\n        owner = msg.sender;\r\n    }\r\n\r\n    function balance () public view returns(uint) {\r\n        return balances[msg.sender];\r\n    }\r\n\r\n    function enroll() public returns (bool) {\r\n        address Cancer_Patient = msg.sender;\r\n        enrolled[Cancer_Patient] = true;\r\n    }\r\n// Cancer Grades \r\n     \r\n    uint [] public Grade = \r\n    [0,1,2,3,4];\r\n    \r\n// Surgery Data\r\n\r\n    uint256 public SurgeryCount = 0;\r\n\r\nstruct Surgery {\r\n    uint _id;\r\n    string _leftBreast;\r\n    string _rightBreast;\r\n}\r\nfunction getSurgery(uint _id, string memory _leftBreast, string memory _rightBreast) public {\r\n    SurgeryCount +=1;\r\n    Surgeries[SurgeryCount] = Surgery(SurgeryCount, _leftBreast, _rightBreast);\r\n}\r\n\r\n    \r\n// cancer types // Type Yes Or No \r\n    \r\n    struct Type {\r\n        string ductalcarcinoma;\r\n        string lubilarcarcinoma;\r\n        string Inflammatory;\r\n        string TripleNCancer;\r\n    }\r\n    \r\n    function addType(uint _id, string memory _ductalcarcinoma, string memory _lubilarcarcinoma, string memory _Inflamatory, string memory _TripleNCancer) public {\r\n        types[_id] = Type(_ductalcarcinoma, _lubilarcarcinoma, _Inflamatory, _TripleNCancer);\r\n    }\r\n    \r\n//Imuno Astro Chemistry Study of Hormone Receptors Her2 Protien Over Epression & Ki67 \r\n// ASCO/CAP gidline\r\n    \r\n    \r\n// Progesteron Cases Data\r\n    \r\n    uint[] private prog =\r\n    [1,2,3,4,5,6,7,8,9,10,\r\n    11,12,13,14,15,16,17,18,19,20,\r\n    21,22,23,24,25,26,27,28,29,30,\r\n    31,32,33,34,35,36,37,38,39,40,\r\n    41,42,43,44,45,46,47,48,49,50,\r\n    51,52,53,54,55,56,57,58,59,60,\r\n    61,62,63,64,65,66,67,68,69,70,\r\n    71,72,73,74,75,76,77,78,79,80,\r\n    81,82,83,84,85,86,87,88,89,90,\r\n    91,92,93,94,95,96,97,98,99,100];\r\n    \r\n    \r\n    struct Progesteron {\r\n        string intense;\r\n        string interpret;\r\n        uint  percentage;\r\n          } \r\n\r\n    \r\n    function addProgesteron(uint _id, string memory _intense, string memory _interpret, uint _percentage) public {\r\n        intensity[_id] = Progesteron(_intense, _interpret, _percentage);\r\n    }\r\n    \r\n    \r\n    // estrogen Cases Data \r\n    \r\n    \r\n    uint[] private EstroPer =\r\n    [1,2,3,4,5,6,7,8,9,10,\r\n    11,12,13,14,15,16,17,18,19,20,\r\n    21,22,23,24,25,26,27,28,29,30,\r\n    31,32,33,34,35,36,37,38,39,40,\r\n    41,42,43,44,45,46,47,48,49,50,\r\n    51,52,53,54,55,56,57,58,59,60,\r\n    61,62,63,64,65,66,67,68,69,70,\r\n    71,72,73,74,75,76,77,78,79,80,\r\n    81,82,83,84,85,86,87,88,89,90,\r\n    91,92,93,94,95,96,97,98,99,100];\r\n    \r\n    struct Estrogen {\r\n        string intense;\r\n        string interpret;\r\n        uint percentage;\r\n    }\r\n    \r\n    function addEstrogen(uint _id, string memory _intense, string memory _interpret, uint _percentage) public {\r\n        intensify[_id] = Estrogen(_intense, _interpret, _percentage);\r\n    \r\n    }\r\n    \r\n    uint percentage =60;\r\n    function Estro () public returns (string memory) {\r\n        if (percentage < 50) {\r\n            result =\"Estro Negative\";\r\n        } \r\n        else{\r\n            if(percentage==50){\r\n                \r\n                result=\"Estrogen is present normal\";\r\n            }\r\n            else{\r\n                if(percentage>50){\r\n                    result=\"Estrogen is present strongly\";\r\n                }\r\n                else{ }\r\n            }\r\n        }\r\n        return result;\r\n    }  \r\n    // HerTwo Percentage \r\n    \r\n     uint[] public Her = [0,1,2,3,4];\r\n    \r\n    uint i = 0;\r\n    string result;\r\n    \r\n    function descision () public returns (string memory) {\r\n        if (i < 1) {\r\n            result =\"Her Two negative\";\r\n        } \r\n        else{\r\n            if(i==1){\r\n                result=\"Her Two positive\";\r\n            }\r\n            else{\r\n                if(i>=1||i==2){\r\n                    result=\"Her Two positive \";\r\n                }\r\n                else{\r\n                                    }\r\n            }\r\n        }\r\n        return result;\r\n    }  \r\n}\r\n\r\n\r\n\r\n",
  "sourcePath": "C:/Users/Hala/Desktop/Final Project/contracts/Cancer.sol",
  "compiler": {
    "name": "solc",
    "version": "0.5.16+commit.9c3226ce.Emscripten.clang"
  },
  "schemaVersion": "3.3.2",
  "updatedAt": "2020-11-24T23:14:14.974Z",
  "devdoc": {
    "methods": {}
  },
  "userdoc": {
    "methods": {}
  }
}